{
  "_format": "hh-sol-artifact-1",
  "contractName": "ElectionFactoryVoting",
  "sourceName": "contracts/ElectionFactoryVoting.sol",
  "abi": [
    {
      "anonymous": false,
      "inputs": [
        {
          "indexed": true,
          "internalType": "uint256",
          "name": "electionId",
          "type": "uint256"
        },
        {
          "indexed": false,
          "internalType": "uint256",
          "name": "candidateId",
          "type": "uint256"
        },
        {
          "indexed": false,
          "internalType": "string",
          "name": "name",
          "type": "string"
        }
      ],
      "name": "CandidateAdded",
      "type": "event"
    },
    {
      "anonymous": false,
      "inputs": [
        {
          "indexed": true,
          "internalType": "uint256",
          "name": "electionId",
          "type": "uint256"
        },
        {
          "indexed": false,
          "internalType": "address",
          "name": "chairperson",
          "type": "address"
        },
        {
          "indexed": false,
          "internalType": "string",
          "name": "title",
          "type": "string"
        }
      ],
      "name": "ElectionCreated",
      "type": "event"
    },
    {
      "anonymous": false,
      "inputs": [
        {
          "indexed": true,
          "internalType": "uint256",
          "name": "electionId",
          "type": "uint256"
        },
        {
          "indexed": false,
          "internalType": "string",
          "name": "phase",
          "type": "string"
        }
      ],
      "name": "PhaseChanged",
      "type": "event"
    },
    {
      "anonymous": false,
      "inputs": [
        {
          "indexed": true,
          "internalType": "uint256",
          "name": "electionId",
          "type": "uint256"
        },
        {
          "indexed": false,
          "internalType": "uint256",
          "name": "candidateId",
          "type": "uint256"
        }
      ],
      "name": "VoteCast",
      "type": "event"
    },
    {
      "anonymous": false,
      "inputs": [
        {
          "indexed": true,
          "internalType": "uint256",
          "name": "electionId",
          "type": "uint256"
        },
        {
          "indexed": false,
          "internalType": "uint256",
          "name": "voter",
          "type": "uint256"
        }
      ],
      "name": "VoterRegistered",
      "type": "event"
    },
    {
      "inputs": [
        {
          "internalType": "uint256",
          "name": "_electionId",
          "type": "uint256"
        },
        {
          "internalType": "uint256",
          "name": "identityCommitment",
          "type": "uint256"
        }
      ],
      "name": "ApproveVoter",
      "outputs": [],
      "stateMutability": "nonpayable",
      "type": "function"
    },
    {
      "inputs": [
        {
          "internalType": "uint256",
          "name": "_electionId",
          "type": "uint256"
        },
        {
          "internalType": "string",
          "name": "_name",
          "type": "string"
        },
        {
          "internalType": "string",
          "name": "_symbol",
          "type": "string"
        },
        {
          "internalType": "string",
          "name": "_manifestoCID",
          "type": "string"
        }
      ],
      "name": "addCandidate",
      "outputs": [],
      "stateMutability": "nonpayable",
      "type": "function"
    },
    {
      "inputs": [
        {
          "internalType": "string",
          "name": "_title",
          "type": "string"
        },
        {
          "internalType": "string",
          "name": "_code",
          "type": "string"
        },
        {
          "internalType": "bool",
          "name": "_isPublic",
          "type": "bool"
        },
        {
          "internalType": "string",
          "name": "_description",
          "type": "string"
        },
        {
          "internalType": "string",
          "name": "_category",
          "type": "string"
        },
        {
          "internalType": "string",
          "name": "_imageCID",
          "type": "string"
        }
      ],
      "name": "createElection",
      "outputs": [],
      "stateMutability": "nonpayable",
      "type": "function"
    },
    {
      "inputs": [],
      "name": "electionCount",
      "outputs": [
        {
          "internalType": "uint256",
          "name": "",
          "type": "uint256"
        }
      ],
      "stateMutability": "view",
      "type": "function"
    },
    {
      "inputs": [
        {
          "internalType": "uint256",
          "name": "_electionId",
          "type": "uint256"
        }
      ],
      "name": "endVoting",
      "outputs": [],
      "stateMutability": "nonpayable",
      "type": "function"
    },
    {
      "inputs": [
        {
          "internalType": "address",
          "name": "user",
          "type": "address"
        }
      ],
      "name": "getAllUserAndPublicElections",
      "outputs": [
        {
          "components": [
            {
              "internalType": "uint256",
              "name": "id",
              "type": "uint256"
            },
            {
              "internalType": "string",
              "name": "title",
              "type": "string"
            },
            {
              "internalType": "string",
              "name": "description",
              "type": "string"
            },
            {
              "internalType": "string",
              "name": "category",
              "type": "string"
            },
            {
              "internalType": "string",
              "name": "publicCode",
              "type": "string"
            },
            {
              "internalType": "string",
              "name": "phase",
              "type": "string"
            },
            {
              "internalType": "address",
              "name": "chairperson",
              "type": "address"
            }
          ],
          "internalType": "struct ElectionFactoryVoting.ElectionSummary[]",
          "name": "",
          "type": "tuple[]"
        }
      ],
      "stateMutability": "view",
      "type": "function"
    },
    {
      "inputs": [
        {
          "internalType": "uint256",
          "name": "_electionId",
          "type": "uint256"
        },
        {
          "internalType": "uint256",
          "name": "_candidateId",
          "type": "uint256"
        }
      ],
      "name": "getCandidate",
      "outputs": [
        {
          "internalType": "string",
          "name": "name",
          "type": "string"
        },
        {
          "internalType": "string",
          "name": "manifestoCID",
          "type": "string"
        },
        {
          "internalType": "string",
          "name": "symbol",
          "type": "string"
        },
        {
          "internalType": "uint256",
          "name": "voteCount",
          "type": "uint256"
        }
      ],
      "stateMutability": "view",
      "type": "function"
    },
    {
      "inputs": [
        {
          "internalType": "uint256",
          "name": "_electionId",
          "type": "uint256"
        }
      ],
      "name": "getCandidates",
      "outputs": [
        {
          "components": [
            {
              "internalType": "string",
              "name": "name",
              "type": "string"
            },
            {
              "internalType": "string",
              "name": "symbol",
              "type": "string"
            },
            {
              "internalType": "string",
              "name": "manifestoCID",
              "type": "string"
            },
            {
              "internalType": "uint256",
              "name": "voteCount",
              "type": "uint256"
            }
          ],
          "internalType": "struct ElectionFactoryVoting.Candidate[]",
          "name": "",
          "type": "tuple[]"
        }
      ],
      "stateMutability": "view",
      "type": "function"
    },
    {
      "inputs": [
        {
          "internalType": "uint256",
          "name": "_electionId",
          "type": "uint256"
        }
      ],
      "name": "getElectionInfo",
      "outputs": [
        {
          "internalType": "string",
          "name": "title",
          "type": "string"
        },
        {
          "internalType": "string",
          "name": "code",
          "type": "string"
        },
        {
          "internalType": "address",
          "name": "chairperson",
          "type": "address"
        },
        {
          "internalType": "string",
          "name": "imageCID",
          "type": "string"
        },
        {
          "internalType": "string",
          "name": "phase",
          "type": "string"
        },
        {
          "internalType": "uint256",
          "name": "numCandidates",
          "type": "uint256"
        }
      ],
      "stateMutability": "view",
      "type": "function"
    },
    {
      "inputs": [
        {
          "internalType": "uint256",
          "name": "_electionId",
          "type": "uint256"
        }
      ],
      "name": "getVoterRequests",
      "outputs": [
        {
          "internalType": "uint256[]",
          "name": "",
          "type": "uint256[]"
        }
      ],
      "stateMutability": "view",
      "type": "function"
    },
    {
      "inputs": [
        {
          "internalType": "uint256",
          "name": "_electionId",
          "type": "uint256"
        }
      ],
      "name": "getWinner",
      "outputs": [
        {
          "internalType": "string",
          "name": "name",
          "type": "string"
        },
        {
          "internalType": "uint256",
          "name": "voteCount",
          "type": "uint256"
        }
      ],
      "stateMutability": "view",
      "type": "function"
    },
    {
      "inputs": [
        {
          "internalType": "uint256",
          "name": "_electionId",
          "type": "uint256"
        },
        {
          "internalType": "uint256",
          "name": "identityCommitment",
          "type": "uint256"
        }
      ],
      "name": "hasUserVoted",
      "outputs": [
        {
          "internalType": "bool",
          "name": "",
          "type": "bool"
        }
      ],
      "stateMutability": "view",
      "type": "function"
    },
    {
      "inputs": [
        {
          "internalType": "string",
          "name": "_code",
          "type": "string"
        }
      ],
      "name": "isPublicCodeTaken",
      "outputs": [
        {
          "internalType": "bool",
          "name": "",
          "type": "bool"
        }
      ],
      "stateMutability": "view",
      "type": "function"
    },
    {
      "inputs": [
        {
          "internalType": "uint256",
          "name": "_electionId",
          "type": "uint256"
        },
        {
          "internalType": "uint256",
          "name": "identityCommitment",
          "type": "uint256"
        }
      ],
      "name": "isVoterRegistered",
      "outputs": [
        {
          "internalType": "bool",
          "name": "",
          "type": "bool"
        }
      ],
      "stateMutability": "view",
      "type": "function"
    },
    {
      "inputs": [
        {
          "internalType": "uint256",
          "name": "_electionId",
          "type": "uint256"
        },
        {
          "internalType": "uint256",
          "name": "identityCommitment",
          "type": "uint256"
        }
      ],
      "name": "registerVoter",
      "outputs": [],
      "stateMutability": "nonpayable",
      "type": "function"
    },
    {
      "inputs": [
        {
          "internalType": "uint256",
          "name": "_electionId",
          "type": "uint256"
        },
        {
          "internalType": "uint256",
          "name": "identityCommitment",
          "type": "uint256"
        }
      ],
      "name": "requestToVote",
      "outputs": [],
      "stateMutability": "nonpayable",
      "type": "function"
    },
    {
      "inputs": [
        {
          "internalType": "uint256",
          "name": "_electionId",
          "type": "uint256"
        }
      ],
      "name": "startVoting",
      "outputs": [],
      "stateMutability": "nonpayable",
      "type": "function"
    },
    {
      "inputs": [
        {
          "internalType": "uint256",
          "name": "_electionId",
          "type": "uint256"
        },
        {
          "internalType": "uint256",
          "name": "_candidateId",
          "type": "uint256"
        },
        {
          "internalType": "uint256",
          "name": "identityCommitment",
          "type": "uint256"
        }
      ],
      "name": "vote",
      "outputs": [],
      "stateMutability": "nonpayable",
      "type": "function"
    }
  ],
  "bytecode": "0x60808060405234610016576125ed908161001c8239f35b600080fdfe6080604052600436101561001257600080fd5b60003560e01c8063266bc73c146116215780633d2f5bda146115415780633e39a7a51461139a5780634129b2c91461129157806349be2053146111c85780634bd46448146110e457806356c41595146110a957806359b964e114610f35578063649f89a514610e4e5780637d69ee7114610bc75780638a6655d614610a2f57806396854134146109f4578063997d2830146109d6578063bd565988146107c4578063be00d6a1146106f1578063ce4a274314610251578063ce99b5df146101485763f95195d4146100e257600080fd5b34610143576020366003190112610143576004356001600160401b0381116101435760ff61012d602061011a81943690600401612145565b816040519382858094519384920161219b565b8101600381520301902054166040519015158152f35b600080fd5b34610143576020366003190112610143576004356000526002602052604060002060ff600682015460081c1690600382101561023b576101e6918061021f57506101906122c8565b815460078301549161021591610207906001600160a01b03166101b5600187016123f7565b956101f46101d160056101ca600485016123f7565b93016123f7565b91604051998a9960c08b5260c08b01906121be565b9089820360208b01526121be565b91604088015286820360608801526121be565b9084820360808601526121be565b9060a08301520390f35b6001036102335761022e612595565b610190565b61022e612574565b634e487b7160e01b600052602160045260246000fd5b34610143576080366003190112610143576024356001600160401b03811161014357610281903690600401612145565b6044356001600160401b038111610143576102a0903690600401612145565b906064356001600160401b038111610143576102c0903690600401612145565b60043560005260026020526102e360018060a01b0360406000205416331461233e565b600435600052600260205260ff60066040600020015460081c16600381101561023b57610310901561237c565b8151156106ac57825115610675576004356000526002602052600860406000206007810192835493610341856121f9565b905560405195610350876120ee565b85875260208701526040860152600060608601528260005201602052604060002083518051906001600160401b03821161056b57819061039a826103948654612208565b86612283565b602090601f8311600114610609576000926105fe575b50508160011b916000199060031b1c19161781555b60208401518051906001600160401b03821161056b5781906103f7826103ee6001870154612208565b60018701612283565b602090601f831160011461058c57600092610581575b50508160011b916000199060031b1c19161760018201555b600281019360408101519485516001600160401b03811161056b576104548161044e8454612208565b84612283565b6020601f82116001146104dd579181600394926060947fed8911b3df733b7d5f75724158e54478ea12e30f49c9d31b5261879f5b76586f999a6000926104d2575b50508160011b9160001990871b1c19161790555b015191015560405190815260406020820152806104cd6004359460408301906121be565b0390a2005b015190508a80610495565b601f198216978360005260206000209860005b8181106105535750927fed8911b3df733b7d5f75724158e54478ea12e30f49c9d31b5261879f5b76586f98996060959360019383600399971061053b575b505050811b0190556104a9565b015160001983891b60f8161c191690558a808061052e565b838301518b556001909a0199602093840193016104f0565b634e487b7160e01b600052604160045260246000fd5b01519050868061040d565b9250600184016000526020600020906000935b601f19841685106105e3576001945083601f198116106105ca575b505050811b016001820155610425565b015160001960f88460031b161c191690558680806105ba565b8181015183556020948501946001909301929091019061059f565b0151905086806103b0565b9250836000526020600020906000935b601f198416851061065a576001945083601f19811610610641575b505050811b0181556103c5565b015160001960f88460031b161c19169055868080610634565b81810151835560209485019460019093019290910190610619565b60405162461bcd60e51b815260206004820152600f60248201526e14de5b589bdb081c995c5d5a5c9959608a1b6044820152606490fd5b60405162461bcd60e51b815260206004820152601760248201527f43616e646964617465206e616d652072657175697265640000000000000000006044820152606490fd5b34610143576106ff366121e3565b8160005260206002815261072160018060a01b0360406000205416331461233e565b826000526002815260ff60066040600020015460081c1691600383101561023b5761076d7f85238313f6b4aa1ea470340fc24bc06d68e734cd21411160c06714eb547571af931561237c565b8360005260028252600960406000200181600052825261079560ff604060002054161561249a565b836000526002825260096040600020018160005282526040600020600160ff19825416179055604051908152a2005b34610143576107d2366121e3565b90806000526002916020908382526107f860018060a01b0360406000205416331461233e565b8260005283825260ff60066040600020015460081c16600390600381101561023b57610824901561237c565b83600052848352600960406000200182600052835261084b60ff604060002054161561249a565b836000528483526009604060002001826000528352604060002094600195600160ff19825416179055856000905b6108ab575b857f85238313f6b4aa1ea470340fc24bc06d68e734cd21411160c06714eb547571af8686604051908152a2005b85600052818552600b8060406000200180548310156109cf576108cf8387926124db565b905490861b1c146108e35750860186610879565b91909580975060005280855281604060002001805496600019978881019081116109b9576109176109319161094a946124db565b905490871b1c918a600052848952856040600020016124db565b90919082549060031b91821b91600019901b1916179055565b86600052845260406000200180549485156109a357807f85238313f6b4aa1ea470340fc24bc06d68e734cd21411160c06714eb547571af96019261098e84846124db565b81939154921b1b19169055558392858061087e565b634e487b7160e01b600052603160045260246000fd5b634e487b7160e01b600052601160045260246000fd5b505061087e565b34610143576000366003190112610143576020600154604051908152f35b3461014357610a02366121e3565b906000526002602052600a60406000200190600052602052602060ff604060002054166040519015158152f35b34610143576060366003190112610143576004356024359060443591816000526020906002825260ff60066040600020015460081c16600381101561023b576001610a7a911461237c565b82600052600282526040600020938060005260098501835260ff6040600020541615610b9157600a8501908060005281845260ff60406000205416610b5c576007860154831015610b235760087fc31875ef3ed5138b71a0c1da7e494bc4d2ba4f567084ea481ec9c45f3a93948b9596846000520184526003604060002001610b0381546121f9565b905560005282526040600020600160ff19825416179055604051908152a2005b60405162461bcd60e51b8152600481018590526011602482015270496e76616c69642063616e64696461746560781b6044820152606490fd5b60405162461bcd60e51b815260048101859052600d60248201526c105b1c9958591e481d9bdd1959609a1b6044820152606490fd5b60405162461bcd60e51b815260048101849052600e60248201526d139bdd081c9959da5cdd195c995960921b6044820152606490fd5b34610143576020366003190112610143576004356001600160a01b038116810361014357600154610bf7816124f3565b9160009160005b818110610d2b57505050610c11816124f3565b9160005b828110610d0157836040518091602082016020835281518091526040830190602060408260051b8601019301916000905b828210610c5557505050500390f35b919360019193955060208091603f1989820301855287519081518152610cdf610ccc610cb9610ca6610c948787015160e08988015260e08701906121be565b604087015186820360408801526121be565b60608087015190868303908701526121be565b60808086015190858303908601526121be565b60a08085015190848303908501526121be565b9160c09081878060a01b03910151169101529601920192018594939192610c46565b80610d0e600192846123cd565b51610d1982876123cd565b52610d2481866123cd565b5001610c15565b8060005260026020526040600020600681015460ff81168015610e38575b610d58575b5050600101610bfe565b919460039260081c60ff16908382101561023b576001938793610e059380610e0d5750610ddb6004610d886122c8565b925b610dd0898060a01b03825416956040519d8e610da5816120d3565b528d6020610db48d86016123f7565b9101528d6040610dc6600286016123f7565b91015282016123f7565b60608d0152016123f7565b60808a015260a089015260c0880152610df3816121f9565b96610dfe828a6123cd565b52876123cd565b509086610d4e565b8603610e2657610ddb6004610e20612595565b92610d8a565b610ddb6004610e33612574565b610e20565b5081546001600160a01b03868116911614610d49565b346101435760208060031936011261014357600435908160005260028152610e8460018060a01b0360406000205416331461233e565b816000526002815260ff60066040600020015460081c16600381101561023b577f5ea115dcb736498e528a9ed962d7b5c11744420bb41e4b92bf413671662854dc91610ed460016060931461237c565b8360005260028152600660406000200161020061ff00198254161790556005610efc856122f0565b5001610f11610f0b8254612208565b82612259565b64115b99195960da1b90600a820190556005604051928084528301526040820152a2005b3461014357610f43366121e3565b90806000526002916020916002835260ff60066040600020015460081c1690600391600381101561023b57610f78901561237c565b80600052600284526009604060002001836000528452610fa060ff604060002054161561249a565b806000526002845260018060a01b036040600020541633146110645760005b81600052858552600b604060002001805482101561102e57610fe28286926124db565b905490851b1c14610ff557600101610fbf565b60405162461bcd60e51b8152600481018690526011602482015270105b1c9958591e481c995c5d595cdd1959607a1b6044820152606490fd5b846002878560005252600b60406000200190815491600160401b83101561056b5782610931916001611062950181556124db565b005b60405162461bcd60e51b815260048101859052601960248201527f4368616972706572736f6e2063616e27742072657175657374000000000000006044820152606490fd5b34610143576110b7366121e3565b906000526002602052600960406000200190600052602052602060ff604060002054166040519015158152f35b34610143576110f2366121e3565b9080600052600260205260076040600020015482101561118c5760005260026020526008604060002001906000526020526111666040600020600381015461118261113c836123f7565b9261117461115160016101ca600285016123f7565b916040519687966080885260808801906121be565b9086820360208801526121be565b9084820360408601526121be565b9060608301520390f35b60405162461bcd60e51b8152602060048201526014602482015273125b9d985b1a590818d85b991a59185d1948125160621b6044820152606490fd5b34610143576020806003193601126101435760043580600052600282526111fd60018060a01b0360406000205416331461233e565b60005260028152600b60406000200160405190818382549182815201908192600052846000209060005b8682821061127d57868661123d82880383612124565b604051928392818401908285525180915260408401929160005b82811061126657505050500390f35b835185528695509381019392810192600101611257565b835485529093019260019283019201611227565b34610143576020806003193601126101435760043590816000526002815260ff60066040600020015460081c1691600392600381101561023b576002036113605760005260028152604060002091600080600092600860078701549601935b8681106113335761132b86868660005281526040600020906113166003830154926123f7565b916040519384936040855260408501906121be565b918301520390f35b806000528486528160406000200154838111611353575b506001016112f0565b909350915082600161134a565b60405162461bcd60e51b8152600481018390526012602482015271115b1958dd1a5bdb881b9bdd08195b99195960721b6044820152606490fd5b34610143576020806003193601126101435760043560005260028082526040600020906007820154906113cc826123b6565b926113da6040519485612124565b8284526113e6836123b6565b601f19018560005b82811061150c5750505060080160005b8381106114a157604080518781528651818901819052600092600582901b8301810191898b01918b9085015b8287106114375785850386f35b909192938280600192603f1989820301855287519061148761147561146560808551908086528501906121be565b85850151848203878601526121be565b604084015183820360408501526121be565b91606080910151910152960192019601959291909261142a565b8060019160005282875260406000206003604051916114bf836120ee565b6114c8816123f7565b83526114d58582016123f7565b8a8401526114e48782016123f7565b6040840152015460608201526114fa82886123cd565b5261150581876123cd565b50016113fe565b60409593955161151b816120ee565b6000606080835280858401528060408401528201528282890101520186909492946113ee565b34610143576020806003193601126101435760043590816000526002815261157760018060a01b0360406000205416331461233e565b816000526002815260ff60066040600020015460081c16600381101561023b577f5ea115dcb736498e528a9ed962d7b5c11744420bb41e4b92bf413671662854dc916115c56060921561237c565b8360005260028152600660406000200161010061ff001982541617905560056115ed856122f0565b50016115fc610f0b8254612208565b65566f74696e6760d01b90600c820190556006604051928084528301526040820152a2005b346101435760c0366003190112610143576004356001600160401b03811161014357611651903690600401612145565b6024356001600160401b03811161014357611670903690600401612145565b604435151560443503610143576064356001600160401b0381116101435761169c903690600401612145565b906084356001600160401b038111610143576116bc903690600401612145565b60a4356001600160401b038111610143576116db903690600401612145565b9260405160ff845191602081818801946116f681838861219b565b81016003815203019020541661208e57602061171d9160405180938192885192839161219b565b81016003815203019020600160ff198254161790556001549361173f856121f9565b600155846000526002602052604060002090336bffffffffffffffffffffffff60a01b83541617825586516001600160401b03811161056b57611792816117896001860154612208565b60018601612283565b806020601f821160011461202057600091612015575b508160011b916000199060031b1c19161760018301555b84516001600160401b03811161056b576117e9816117e06004860154612208565b60048601612283565b806020601f8211600114611fa857600091611f9d575b508160011b916000199060031b1c19161760048301555b60ff1960068301541660ff60443515151617600683015582516001600160401b03811161056b576118578161184e6002860154612208565b60028601612283565b806020601f8211600114611f3057600091611f25575b508160011b916000199060031b1c19161760028301555b83516001600160401b03811161056b576118ae816118a56003860154612208565b60038601612283565b806020601f8211600114611eb857600091611ead575b508160011b916000199060031b1c19161760038301555b8051906001600160401b03821161056b578190611908826118ff6005870154612208565b60058701612283565b602090601f8311600114611e3b57600092611e30575b50508160011b916000199060031b1c19161760058201555b600661ff00198183015416910155837f0899cd1399cb5255769838bb5633e6d9fc0b49629382ae5b27bbaebd44d318706040513381526040602082015280611981604082018a6121be565b0390a260443561198d57005b6040519361199a856120d3565b8452602084019485526040840152606083015260808201526119ba6122c8565b60a08201523360c0820152600054600160401b81101561056b578060016119e492016000556122f0565b929092611e1a5781518355519182516001600160401b03811161056b57611a1b81611a126001850154612208565b60018501612283565b6020601f8211600114611dae5781929394600092611da3575b50508160011b916000199060031b1c19161760018201555b600281019160408101519283516001600160401b03811161056b57611a758161044e8454612208565b602094601f8211600114611d3d57948192939495600092611d32575b50508160011b916000199060031b1c19161790555b600382019160608201519283516001600160401b03811161056b57611acf8161044e8454612208565b602094601f8211600114611ccc57948192939495600092611cc1575b50508160011b916000199060031b1c19161790555b600481019160808101519283516001600160401b03811161056b57611b298161044e8454612208565b602094601f8211600114611c5b57948192939495600092611c50575b50508160011b916000199060031b1c19161790555b600582019160a08201519283516001600160401b03811161056b57611b838161044e8454612208565b6020601f8211600114611be657819060069596600092611bdb575b50508160011b916000199060031b1c19161790555b60c090920151910180546001600160a01b0319166001600160a01b0392909216919091179055005b015190508680611b9e565b601f198216958360005260206000209660005b818110611c385750916006969791846001959410611c1f575b505050811b019055611bb3565b015160001960f88460031b161c19169055868080611c12565b83830151895560019098019760209384019301611bf9565b015190508580611b45565b601f198216958360005260206000209160005b888110611ca957508360019596979810611c90575b505050811b019055611b5a565b015160001960f88460031b161c19169055858080611c83565b91926020600181928685015181550194019201611c6e565b015190508580611aeb565b601f198216958360005260206000209160005b888110611d1a57508360019596979810611d01575b505050811b019055611b00565b015160001960f88460031b161c19169055858080611cf4565b91926020600181928685015181550194019201611cdf565b015190508580611a91565b601f198216958360005260206000209160005b888110611d8b57508360019596979810611d72575b505050811b019055611aa6565b015160001960f88460031b161c19169055858080611d65565b91926020600181928685015181550194019201611d50565b015190508480611a34565b601f198216906001840160005260206000209160005b818110611e0257509583600195969710611de9575b505050811b016001820155611a4c565b015160001960f88460031b161c19169055848080611dd9565b9192602060018192868b015181550194019201611dc4565b634e487b7160e01b600052600060045260246000fd5b01519050888061191e565b9250600584016000526020600020906000935b601f1984168510611e92576001945083601f19811610611e79575b505050811b016005820155611936565b015160001960f88460031b161c19169055888080611e69565b81810151835560209485019460019093019290910190611e4e565b9050850151896118c4565b91506003840160005260206000206000925b601f1983168410611f0d576001935082601f19811610611ef4575b5050811b0160038301556118db565b87015160001960f88460031b161c191690558980611ee5565b87810151825560209384019360019092019101611eca565b90508401518961186d565b91506002840160005260206000206000925b601f1983168410611f85576001935082601f19811610611f6c575b5050811b016002830155611884565b86015160001960f88460031b161c191690558980611f5d565b86810151825560209384019360019092019101611f42565b9050860151896117ff565b91506004840160005260206000206000925b601f1983168410611ffd576001935082601f19811610611fe4575b5050811b016004830155611816565b88015160001960f88460031b161c191690558980611fd5565b88810151825560209384019360019092019101611fba565b9050880151896117a8565b91506001840160005260206000206000925b8a601f198416851061207757506001935082601f1981161061205e575b5050811b0160018301556117bf565b8a015160001960f88460031b161c19169055898061204f565b810151825560209384019360019092019101612032565b60405162461bcd60e51b815260206004820152601860248201527f5075626c696320636f646520616c7265616479207573656400000000000000006044820152606490fd5b60e081019081106001600160401b0382111761056b57604052565b608081019081106001600160401b0382111761056b57604052565b604081019081106001600160401b0382111761056b57604052565b90601f801991011681019081106001600160401b0382111761056b57604052565b81601f82011215610143578035906001600160401b03821161056b5760405192612179601f8401601f191660200185612124565b8284526020838301011161014357816000926020809301838601378301015290565b60005b8381106121ae5750506000910152565b818101518382015260200161219e565b906020916121d78151809281855285808601910161219b565b601f01601f1916010190565b6040906003190112610143576004359060243590565b60001981146109b95760010190565b90600182811c92168015612238575b602083101461222257565b634e487b7160e01b600052602260045260246000fd5b91607f1691612217565b81811061224d575050565b60008155600101612242565b90601f8111612266575050565b61228191600052601f6020600020910160051c810190612242565b565b9190601f811161229257505050565b612281926000526020600020906020601f840160051c830193106122be575b601f0160051c0190612242565b90915081906122b1565b604051906122d582612109565b600c82526b2932b3b4b9ba3930ba34b7b760a11b6020830152565b90600091825481101561232a57600790838052027f290decd9548b62a8d60345a988386fc84ba6bc95484008f6362f93160ef3e563019190565b634e487b7160e01b83526032600452602483fd5b1561234557565b60405162461bcd60e51b815260206004820152600f60248201526e2737ba1031b430b4b93832b939b7b760891b6044820152606490fd5b1561238357565b60405162461bcd60e51b815260206004820152600b60248201526a57726f6e6720706861736560a81b6044820152606490fd5b6001600160401b03811161056b5760051b60200190565b80518210156123e15760209160051b010190565b634e487b7160e01b600052603260045260246000fd5b9060405191826000825461240a81612208565b908184526020946001916001811690816000146124785750600114612439575b50505061228192500383612124565b600090815285812095935091905b818310612460575050612281935082010138808061242a565b85548884018501529485019487945091830191612447565b9250505061228194925060ff191682840152151560051b82010138808061242a565b156124a157565b60405162461bcd60e51b8152602060048201526012602482015271105b1c9958591e481c9959da5cdd195c995960721b6044820152606490fd5b80548210156123e15760005260206000200190600090565b906124fd826123b6565b60409061250d6040519182612124565b838152809361251e601f19916123b6565b019160009160005b848110612534575050505050565b6020908351612542816120d3565b8581526060839080828401528087840152808084015280608084015260a08301528660c0830152828501015201612526565b6040519061258182612109565b6005825264115b99195960da1b6020830152565b604051906125a282612109565b6006825265566f74696e6760d01b602083015256fea26469706673582212208851f24f7ed5fbc62ee85c17fc2f5bc203fd8a4c598d9078795b4025c789711d64736f6c63430008170033",
  "linkReferences": {},
  "deployedLinkReferences": {}
}